{
  "_format": "hh-sol-artifact-1",
  "contractName": "Posts",
  "sourceName": "contracts/Posts.sol",
  "abi": [
    {
      "anonymous": false,
      "inputs": [
        {
          "indexed": true,
          "internalType": "string",
          "name": "username",
          "type": "string"
        },
        {
          "indexed": false,
          "internalType": "string",
          "name": "postText",
          "type": "string"
        }
      ],
      "name": "NewPost",
      "type": "event"
    },
    {
      "inputs": [
        {
          "internalType": "string",
          "name": "_postText",
          "type": "string"
        },
        {
          "internalType": "string",
          "name": "_username",
          "type": "string"
        }
      ],
      "name": "addPost",
      "outputs": [],
      "stateMutability": "nonpayable",
      "type": "function"
    },
    {
      "inputs": [],
      "name": "getAllPosts",
      "outputs": [
        {
          "components": [
            {
              "internalType": "string",
              "name": "username",
              "type": "string"
            },
            {
              "internalType": "string",
              "name": "postText",
              "type": "string"
            }
          ],
          "internalType": "struct Posts.Post[]",
          "name": "",
          "type": "tuple[]"
        }
      ],
      "stateMutability": "view",
      "type": "function"
    },
    {
      "inputs": [
        {
          "internalType": "uint256",
          "name": "_postId",
          "type": "uint256"
        }
      ],
      "name": "getPost",
      "outputs": [
        {
          "components": [
            {
              "internalType": "string",
              "name": "username",
              "type": "string"
            },
            {
              "internalType": "string",
              "name": "postText",
              "type": "string"
            }
          ],
          "internalType": "struct Posts.Post",
          "name": "",
          "type": "tuple"
        }
      ],
      "stateMutability": "view",
      "type": "function"
    },
    {
      "inputs": [],
      "name": "getPostCount",
      "outputs": [
        {
          "internalType": "uint256",
          "name": "",
          "type": "uint256"
        }
      ],
      "stateMutability": "view",
      "type": "function"
    },
    {
      "inputs": [],
      "name": "postCount",
      "outputs": [
        {
          "internalType": "uint256",
          "name": "",
          "type": "uint256"
        }
      ],
      "stateMutability": "view",
      "type": "function"
    },
    {
      "inputs": [
        {
          "internalType": "uint256",
          "name": "",
          "type": "uint256"
        }
      ],
      "name": "posts",
      "outputs": [
        {
          "internalType": "string",
          "name": "username",
          "type": "string"
        },
        {
          "internalType": "string",
          "name": "postText",
          "type": "string"
        }
      ],
      "stateMutability": "view",
      "type": "function"
    }
  ],
  "bytecode": "0x608060405234801561001057600080fd5b50610e8c806100206000396000f3fe608060405234801561001057600080fd5b50600436106100625760003560e01c80630b1e7f831461006757806317906c2e1461009857806330561100146100b657806340731c24146100d4578063b02c651614610104578063bcc9540714610120575b600080fd5b610081600480360381019061007c91906108c7565b61013e565b60405161008f929190610b74565b60405180910390f35b6100a0610272565b6040516100ad9190610bed565b60405180910390f35b6100be610278565b6040516100cb9190610b30565b60405180910390f35b6100ee60048036038101906100e991906108c7565b6104a7565b6040516100fb9190610bcb565b60405180910390f35b61011e6004803603810190610119919061085b565b6105fd565b005b610128610717565b6040516101359190610bed565b60405180910390f35b600060205280600052604060002060009150905080600001805461016190610d26565b80601f016020809104026020016040519081016040528092919081815260200182805461018d90610d26565b80156101da5780601f106101af576101008083540402835291602001916101da565b820191906000526020600020905b8154815290600101906020018083116101bd57829003601f168201915b5050505050908060010180546101ef90610d26565b80601f016020809104026020016040519081016040528092919081815260200182805461021b90610d26565b80156102685780601f1061023d57610100808354040283529160200191610268565b820191906000526020600020905b81548152906001019060200180831161024b57829003601f168201915b5050505050905082565b60015481565b6060600060015467ffffffffffffffff8111156102be577f4e487b7100000000000000000000000000000000000000000000000000000000600052604160045260246000fd5b6040519080825280602002602001820160405280156102f757816020015b6102e4610721565b8152602001906001900390816102dc5790505b50905060005b60015481101561049f5760008082815260200190815260200160002060405180604001604052908160008201805461033490610d26565b80601f016020809104026020016040519081016040528092919081815260200182805461036090610d26565b80156103ad5780601f10610382576101008083540402835291602001916103ad565b820191906000526020600020905b81548152906001019060200180831161039057829003601f168201915b505050505081526020016001820180546103c690610d26565b80601f01602080910402602001604051908101604052809291908181526020018280546103f290610d26565b801561043f5780601f106104145761010080835404028352916020019161043f565b820191906000526020600020905b81548152906001019060200180831161042257829003601f168201915b505050505081525050828281518110610481577f4e487b7100000000000000000000000000000000000000000000000000000000600052603260045260246000fd5b6020026020010181905250808061049790610d58565b9150506102fd565b508091505090565b6104af610721565b60008060008481526020019081526020016000206040518060400160405290816000820180546104de90610d26565b80601f016020809104026020016040519081016040528092919081815260200182805461050a90610d26565b80156105575780601f1061052c57610100808354040283529160200191610557565b820191906000526020600020905b81548152906001019060200180831161053a57829003601f168201915b5050505050815260200160018201805461057090610d26565b80601f016020809104026020016040519081016040528092919081815260200182805461059c90610d26565b80156105e95780601f106105be576101008083540402835291602001916105e9565b820191906000526020600020905b8154815290600101906020018083116105cc57829003601f168201915b505050505081525050905080915050919050565b608c82511115610642576040517f08c379a000000000000000000000000000000000000000000000000000000000815260040161063990610bab565b60405180910390fd5b600060015490506001600081548092919061065c90610d58565b919050555060405180604001604052808381526020018481525060008083815260200190815260200160002060008201518160000190805190602001906106a492919061073b565b5060208201518160010190805190602001906106c192919061073b565b50905050816040516106d39190610b19565b60405180910390207f5b7b0c1433e065a4319746458664643071111304156c50089da18d6952f5b63c8460405161070a9190610b52565b60405180910390a2505050565b6000600154905090565b604051806040016040528060608152602001606081525090565b82805461074790610d26565b90600052602060002090601f01602090048101928261076957600085556107b0565b82601f1061078257805160ff19168380011785556107b0565b828001600101855582156107b0579182015b828111156107af578251825591602001919060010190610794565b5b5090506107bd91906107c1565b5090565b5b808211156107da5760008160009055506001016107c2565b5090565b60006107f16107ec84610c39565b610c08565b90508281526020810184848401111561080957600080fd5b610814848285610ce4565b509392505050565b600082601f83011261082d57600080fd5b813561083d8482602086016107de565b91505092915050565b60008135905061085581610e3f565b92915050565b6000806040838503121561086e57600080fd5b600083013567ffffffffffffffff81111561088857600080fd5b6108948582860161081c565b925050602083013567ffffffffffffffff8111156108b157600080fd5b6108bd8582860161081c565b9150509250929050565b6000602082840312156108d957600080fd5b60006108e784828501610846565b91505092915050565b60006108fc8383610a82565b905092915050565b600061090f82610c79565b6109198185610c9c565b93508360208202850161092b85610c69565b8060005b85811015610967578484038952815161094885826108f0565b945061095383610c8f565b925060208a0199505060018101905061092f565b50829750879550505050505092915050565b600061098482610c84565b61098e8185610cad565b935061099e818560208601610cf3565b6109a781610e2e565b840191505092915050565b60006109bd82610c84565b6109c78185610cbe565b93506109d7818560208601610cf3565b6109e081610e2e565b840191505092915050565b60006109f682610c84565b610a008185610ccf565b9350610a10818560208601610cf3565b80840191505092915050565b6000610a29602a83610cbe565b91507f506f73742074657874206d757374206265206c657373207468616e203134302060008301527f63686172616374657273000000000000000000000000000000000000000000006020830152604082019050919050565b60006040830160008301518482036000860152610a9f8282610979565b91505060208301518482036020860152610ab98282610979565b9150508091505092915050565b60006040830160008301518482036000860152610ae38282610979565b91505060208301518482036020860152610afd8282610979565b9150508091505092915050565b610b1381610cda565b82525050565b6000610b2582846109eb565b915081905092915050565b60006020820190508181036000830152610b4a8184610904565b905092915050565b60006020820190508181036000830152610b6c81846109b2565b905092915050565b60006040820190508181036000830152610b8e81856109b2565b90508181036020830152610ba281846109b2565b90509392505050565b60006020820190508181036000830152610bc481610a1c565b9050919050565b60006020820190508181036000830152610be58184610ac6565b905092915050565b6000602082019050610c026000830184610b0a565b92915050565b6000604051905081810181811067ffffffffffffffff82111715610c2f57610c2e610dff565b5b8060405250919050565b600067ffffffffffffffff821115610c5457610c53610dff565b5b601f19601f8301169050602081019050919050565b6000819050602082019050919050565b600081519050919050565b600081519050919050565b6000602082019050919050565b600082825260208201905092915050565b600082825260208201905092915050565b600082825260208201905092915050565b600081905092915050565b6000819050919050565b82818337600083830152505050565b60005b83811015610d11578082015181840152602081019050610cf6565b83811115610d20576000848401525b50505050565b60006002820490506001821680610d3e57607f821691505b60208210811415610d5257610d51610dd0565b5b50919050565b6000610d6382610cda565b91507fffffffffffffffffffffffffffffffffffffffffffffffffffffffffffffffff821415610d9657610d95610da1565b5b600182019050919050565b7f4e487b7100000000000000000000000000000000000000000000000000000000600052601160045260246000fd5b7f4e487b7100000000000000000000000000000000000000000000000000000000600052602260045260246000fd5b7f4e487b7100000000000000000000000000000000000000000000000000000000600052604160045260246000fd5b6000601f19601f8301169050919050565b610e4881610cda565b8114610e5357600080fd5b5056fea264697066735822122089c2b7f05ae9bd7617e58b5e5782133c387bdf7a7ee53b1377c6a8914cfd7c1164736f6c63430008000033",
  "linkReferences": {},
  "deployedLinkReferences": {}
}