{
  "_format": "hh-sol-artifact-1",
  "contractName": "Posts",
  "sourceName": "contracts/Posts.sol",
  "abi": [
    {
      "anonymous": false,
      "inputs": [
        {
          "indexed": true,
          "internalType": "address",
          "name": "username",
          "type": "address"
        },
        {
          "indexed": false,
          "internalType": "string",
          "name": "postText",
          "type": "string"
        },
        {
          "indexed": false,
          "internalType": "uint256",
          "name": "timestamp",
          "type": "uint256"
        }
      ],
      "name": "NewPost",
      "type": "event"
    },
    {
      "inputs": [
        {
          "internalType": "string",
          "name": "_postText",
          "type": "string"
        }
      ],
      "name": "addPost",
      "outputs": [],
      "stateMutability": "nonpayable",
      "type": "function"
    },
    {
      "inputs": [],
      "name": "getAllPosts",
      "outputs": [
        {
          "internalType": "address[]",
          "name": "",
          "type": "address[]"
        },
        {
          "internalType": "string[]",
          "name": "",
          "type": "string[]"
        },
        {
          "internalType": "uint256[]",
          "name": "",
          "type": "uint256[]"
        }
      ],
      "stateMutability": "view",
      "type": "function"
    },
    {
      "inputs": [
        {
          "internalType": "uint256",
          "name": "_postId",
          "type": "uint256"
        }
      ],
      "name": "getPost",
      "outputs": [
        {
          "internalType": "address",
          "name": "",
          "type": "address"
        },
        {
          "internalType": "string",
          "name": "",
          "type": "string"
        },
        {
          "internalType": "uint256",
          "name": "",
          "type": "uint256"
        }
      ],
      "stateMutability": "view",
      "type": "function"
    },
    {
      "inputs": [],
      "name": "getPostCount",
      "outputs": [
        {
          "internalType": "uint256",
          "name": "",
          "type": "uint256"
        }
      ],
      "stateMutability": "view",
      "type": "function"
    },
    {
      "inputs": [],
      "name": "postCount",
      "outputs": [
        {
          "internalType": "uint256",
          "name": "",
          "type": "uint256"
        }
      ],
      "stateMutability": "view",
      "type": "function"
    },
    {
      "inputs": [
        {
          "internalType": "uint256",
          "name": "",
          "type": "uint256"
        }
      ],
      "name": "posts",
      "outputs": [
        {
          "internalType": "address",
          "name": "username",
          "type": "address"
        },
        {
          "internalType": "string",
          "name": "postText",
          "type": "string"
        },
        {
          "internalType": "uint256",
          "name": "timestamp",
          "type": "uint256"
        }
      ],
      "stateMutability": "view",
      "type": "function"
    }
  ],
  "bytecode": "0x608060405234801561001057600080fd5b50611072806100206000396000f3fe608060405234801561001057600080fd5b50600436106100625760003560e01c80630b1e7f831461006757806317906c2e1461009957806330561100146100b757806340731c24146100d7578063a632281914610109578063bcc9540714610125575b600080fd5b610081600480360381019061007c91906109ae565b610143565b60405161009093929190610c60565b60405180910390f35b6100a1610215565b6040516100ae9190610d3a565b60405180910390f35b6100bf61021b565b6040516100ce93929190610c9e565b60405180910390f35b6100f160048036038101906100ec91906109ae565b61059c565b60405161010093929190610c60565b60405180910390f35b610123600480360381019061011e919061096d565b6106d1565b005b61012d610843565b60405161013a9190610d3a565b60405180910390f35b60006020528060005260406000206000915090508060000160009054906101000a900473ffffffffffffffffffffffffffffffffffffffff169080600101805461018c90610f0c565b80601f01602080910402602001604051908101604052809291908181526020018280546101b890610f0c565b80156102055780601f106101da57610100808354040283529160200191610205565b820191906000526020600020905b8154815290600101906020018083116101e857829003601f168201915b5050505050908060020154905083565b60015481565b6060806060600060015467ffffffffffffffff811115610264577f4e487b7100000000000000000000000000000000000000000000000000000000600052604160045260246000fd5b6040519080825280602002602001820160405280156102925781602001602082028036833780820191505090505b509050600060015467ffffffffffffffff8111156102d9577f4e487b7100000000000000000000000000000000000000000000000000000000600052604160045260246000fd5b60405190808252806020026020018201604052801561030c57816020015b60608152602001906001900390816102f75790505b509050600060015467ffffffffffffffff811115610353577f4e487b7100000000000000000000000000000000000000000000000000000000600052604160045260246000fd5b6040519080825280602002602001820160405280156103815781602001602082028036833780820191505090505b50905060005b60015481101561058a5760008082815260200190815260200160002060000160009054906101000a900473ffffffffffffffffffffffffffffffffffffffff16848281518110610400577f4e487b7100000000000000000000000000000000000000000000000000000000600052603260045260246000fd5b602002602001019073ffffffffffffffffffffffffffffffffffffffff16908173ffffffffffffffffffffffffffffffffffffffff1681525050600080828152602001908152602001600020600101805461045a90610f0c565b80601f016020809104026020016040519081016040528092919081815260200182805461048690610f0c565b80156104d35780601f106104a8576101008083540402835291602001916104d3565b820191906000526020600020905b8154815290600101906020018083116104b657829003601f168201915b5050505050838281518110610511577f4e487b7100000000000000000000000000000000000000000000000000000000600052603260045260246000fd5b60200260200101819052506000808281526020019081526020016000206002015482828151811061056b577f4e487b7100000000000000000000000000000000000000000000000000000000600052603260045260246000fd5b602002602001018181525050808061058290610f3e565b915050610387565b50828282955095509550505050909192565b600060606000806000808681526020019081526020016000206040518060600160405290816000820160009054906101000a900473ffffffffffffffffffffffffffffffffffffffff1673ffffffffffffffffffffffffffffffffffffffff1673ffffffffffffffffffffffffffffffffffffffff16815260200160018201805461062690610f0c565b80601f016020809104026020016040519081016040528092919081815260200182805461065290610f0c565b801561069f5780601f106106745761010080835404028352916020019161069f565b820191906000526020600020905b81548152906001019060200180831161068257829003601f168201915b505050505081526020016002820154815250509050806000015181602001518260400151935093509350509193909250565b608c81511115610716576040517f08c379a000000000000000000000000000000000000000000000000000000000815260040161070d90610d1a565b60405180910390fd5b6000339050600060015490506001600081548092919061073590610f3e565b919050555060405180606001604052808373ffffffffffffffffffffffffffffffffffffffff1681526020018481526020014281525060008083815260200190815260200160002060008201518160000160006101000a81548173ffffffffffffffffffffffffffffffffffffffff021916908373ffffffffffffffffffffffffffffffffffffffff16021790555060208201518160010190805190602001906107e092919061084d565b50604082015181600201559050508173ffffffffffffffffffffffffffffffffffffffff167f4220cd30ee23a1a4323898d66dc49f1590b9863d860cf84c674c8614e18d496b8442604051610836929190610cea565b60405180910390a2505050565b6000600154905090565b82805461085990610f0c565b90600052602060002090601f01602090048101928261087b57600085556108c2565b82601f1061089457805160ff19168380011785556108c2565b828001600101855582156108c2579182015b828111156108c15782518255916020019190600101906108a6565b5b5090506108cf91906108d3565b5090565b5b808211156108ec5760008160009055506001016108d4565b5090565b60006109036108fe84610d86565b610d55565b90508281526020810184848401111561091b57600080fd5b610926848285610eca565b509392505050565b600082601f83011261093f57600080fd5b813561094f8482602086016108f0565b91505092915050565b60008135905061096781611025565b92915050565b60006020828403121561097f57600080fd5b600082013567ffffffffffffffff81111561099957600080fd5b6109a58482850161092e565b91505092915050565b6000602082840312156109c057600080fd5b60006109ce84828501610958565b91505092915050565b60006109e38383610a1b565b60208301905092915050565b60006109fb8383610b6a565b905092915050565b6000610a0f8383610c42565b60208301905092915050565b610a2481610e8e565b82525050565b610a3381610e8e565b82525050565b6000610a4482610de6565b610a4e8185610e39565b9350610a5983610db6565b8060005b83811015610a8a578151610a7188826109d7565b9750610a7c83610e12565b925050600181019050610a5d565b5085935050505092915050565b6000610aa282610df1565b610aac8185610e4a565b935083602082028501610abe85610dc6565b8060005b85811015610afa5784840389528151610adb85826109ef565b9450610ae683610e1f565b925060208a01995050600181019050610ac2565b50829750879550505050505092915050565b6000610b1782610dfc565b610b218185610e5b565b9350610b2c83610dd6565b8060005b83811015610b5d578151610b448882610a03565b9750610b4f83610e2c565b925050600181019050610b30565b5085935050505092915050565b6000610b7582610e07565b610b7f8185610e6c565b9350610b8f818560208601610ed9565b610b9881611014565b840191505092915050565b6000610bae82610e07565b610bb88185610e7d565b9350610bc8818560208601610ed9565b610bd181611014565b840191505092915050565b6000610be9602a83610e7d565b91507f506f73742074657874206d757374206265206c657373207468616e203134302060008301527f63686172616374657273000000000000000000000000000000000000000000006020830152604082019050919050565b610c4b81610ec0565b82525050565b610c5a81610ec0565b82525050565b6000606082019050610c756000830186610a2a565b8181036020830152610c878185610ba3565b9050610c966040830184610c51565b949350505050565b60006060820190508181036000830152610cb88186610a39565b90508181036020830152610ccc8185610a97565b90508181036040830152610ce08184610b0c565b9050949350505050565b60006040820190508181036000830152610d048185610ba3565b9050610d136020830184610c51565b9392505050565b60006020820190508181036000830152610d3381610bdc565b9050919050565b6000602082019050610d4f6000830184610c51565b92915050565b6000604051905081810181811067ffffffffffffffff82111715610d7c57610d7b610fe5565b5b8060405250919050565b600067ffffffffffffffff821115610da157610da0610fe5565b5b601f19601f8301169050602081019050919050565b6000819050602082019050919050565b6000819050602082019050919050565b6000819050602082019050919050565b600081519050919050565b600081519050919050565b600081519050919050565b600081519050919050565b6000602082019050919050565b6000602082019050919050565b6000602082019050919050565b600082825260208201905092915050565b600082825260208201905092915050565b600082825260208201905092915050565b600082825260208201905092915050565b600082825260208201905092915050565b6000610e9982610ea0565b9050919050565b600073ffffffffffffffffffffffffffffffffffffffff82169050919050565b6000819050919050565b82818337600083830152505050565b60005b83811015610ef7578082015181840152602081019050610edc565b83811115610f06576000848401525b50505050565b60006002820490506001821680610f2457607f821691505b60208210811415610f3857610f37610fb6565b5b50919050565b6000610f4982610ec0565b91507fffffffffffffffffffffffffffffffffffffffffffffffffffffffffffffffff821415610f7c57610f7b610f87565b5b600182019050919050565b7f4e487b7100000000000000000000000000000000000000000000000000000000600052601160045260246000fd5b7f4e487b7100000000000000000000000000000000000000000000000000000000600052602260045260246000fd5b7f4e487b7100000000000000000000000000000000000000000000000000000000600052604160045260246000fd5b6000601f19601f8301169050919050565b61102e81610ec0565b811461103957600080fd5b5056fea2646970667358221220d5b90ec011004acc38d672ccb7f7807c640ebc1e3def58acd65687d3abd1bfce64736f6c63430008000033",
  "linkReferences": {},
  "deployedLinkReferences": {}
}