{
  "_format": "hh-sol-artifact-1",
  "contractName": "Posts",
  "sourceName": "contracts/Posts.sol",
  "abi": [
    {
      "anonymous": false,
      "inputs": [
        {
          "indexed": true,
          "internalType": "address",
          "name": "username",
          "type": "address"
        },
        {
          "indexed": false,
          "internalType": "string",
          "name": "postText",
          "type": "string"
        }
      ],
      "name": "NewPost",
      "type": "event"
    },
    {
      "inputs": [
        {
          "internalType": "string",
          "name": "_postText",
          "type": "string"
        }
      ],
      "name": "addPost",
      "outputs": [],
      "stateMutability": "nonpayable",
      "type": "function"
    },
    {
      "inputs": [],
      "name": "getAllPosts",
      "outputs": [
        {
          "components": [
            {
              "internalType": "address",
              "name": "username",
              "type": "address"
            },
            {
              "internalType": "string",
              "name": "postText",
              "type": "string"
            }
          ],
          "internalType": "struct Posts.Post[]",
          "name": "",
          "type": "tuple[]"
        }
      ],
      "stateMutability": "view",
      "type": "function"
    },
    {
      "inputs": [
        {
          "internalType": "uint256",
          "name": "_postId",
          "type": "uint256"
        }
      ],
      "name": "getPost",
      "outputs": [
        {
          "components": [
            {
              "internalType": "address",
              "name": "username",
              "type": "address"
            },
            {
              "internalType": "string",
              "name": "postText",
              "type": "string"
            }
          ],
          "internalType": "struct Posts.Post",
          "name": "",
          "type": "tuple"
        }
      ],
      "stateMutability": "view",
      "type": "function"
    },
    {
      "inputs": [],
      "name": "getPostCount",
      "outputs": [
        {
          "internalType": "uint256",
          "name": "",
          "type": "uint256"
        }
      ],
      "stateMutability": "view",
      "type": "function"
    },
    {
      "inputs": [],
      "name": "postCount",
      "outputs": [
        {
          "internalType": "uint256",
          "name": "",
          "type": "uint256"
        }
      ],
      "stateMutability": "view",
      "type": "function"
    },
    {
      "inputs": [
        {
          "internalType": "uint256",
          "name": "",
          "type": "uint256"
        }
      ],
      "name": "posts",
      "outputs": [
        {
          "internalType": "address",
          "name": "username",
          "type": "address"
        },
        {
          "internalType": "string",
          "name": "postText",
          "type": "string"
        }
      ],
      "stateMutability": "view",
      "type": "function"
    }
  ],
  "bytecode": "0x608060405234801561001057600080fd5b50610dc5806100206000396000f3fe608060405234801561001057600080fd5b50600436106100625760003560e01c80630b1e7f831461006757806317906c2e1461009857806330561100146100b657806340731c24146100d4578063a632281914610104578063bcc9540714610120575b600080fd5b610081600480360381019061007c9190610818565b61013e565b60405161008f929190610a49565b60405180910390f35b6100a061020a565b6040516100ad9190610aff565b60405180910390f35b6100be610210565b6040516100cb9190610a79565b60405180910390f35b6100ee60048036038101906100e99190610818565b610403565b6040516100fb9190610add565b60405180910390f35b61011e600480360381019061011991906107d7565b61051d565b005b61012861067d565b6040516101359190610aff565b60405180910390f35b60006020528060005260406000206000915090508060000160009054906101000a900473ffffffffffffffffffffffffffffffffffffffff169080600101805461018790610c5f565b80601f01602080910402602001604051908101604052809291908181526020018280546101b390610c5f565b80156102005780601f106101d557610100808354040283529160200191610200565b820191906000526020600020905b8154815290600101906020018083116101e357829003601f168201915b5050505050905082565b60015481565b6060600060015467ffffffffffffffff811115610256577f4e487b7100000000000000000000000000000000000000000000000000000000600052604160045260246000fd5b60405190808252806020026020018201604052801561028f57816020015b61027c610687565b8152602001906001900390816102745790505b50905060005b6001548110156103fb576000808281526020019081526020016000206040518060400160405290816000820160009054906101000a900473ffffffffffffffffffffffffffffffffffffffff1673ffffffffffffffffffffffffffffffffffffffff1673ffffffffffffffffffffffffffffffffffffffff16815260200160018201805461032290610c5f565b80601f016020809104026020016040519081016040528092919081815260200182805461034e90610c5f565b801561039b5780601f106103705761010080835404028352916020019161039b565b820191906000526020600020905b81548152906001019060200180831161037e57829003601f168201915b5050505050815250508282815181106103dd577f4e487b7100000000000000000000000000000000000000000000000000000000600052603260045260246000fd5b602002602001018190525080806103f390610c91565b915050610295565b508091505090565b61040b610687565b60008060008481526020019081526020016000206040518060400160405290816000820160009054906101000a900473ffffffffffffffffffffffffffffffffffffffff1673ffffffffffffffffffffffffffffffffffffffff1673ffffffffffffffffffffffffffffffffffffffff16815260200160018201805461049090610c5f565b80601f01602080910402602001604051908101604052809291908181526020018280546104bc90610c5f565b80156105095780601f106104de57610100808354040283529160200191610509565b820191906000526020600020905b8154815290600101906020018083116104ec57829003601f168201915b505050505081525050905080915050919050565b608c81511115610562576040517f08c379a000000000000000000000000000000000000000000000000000000000815260040161055990610abd565b60405180910390fd5b6000339050600060015490506001600081548092919061058190610c91565b919050555060405180604001604052808373ffffffffffffffffffffffffffffffffffffffff1681526020018481525060008083815260200190815260200160002060008201518160000160006101000a81548173ffffffffffffffffffffffffffffffffffffffff021916908373ffffffffffffffffffffffffffffffffffffffff16021790555060208201518160010190805190602001906106269291906106b7565b509050508173ffffffffffffffffffffffffffffffffffffffff167f6babe127d1599cad37c523a2dd29c5d02acd7132a883e378a2d9b42ec75a1fa9846040516106709190610a9b565b60405180910390a2505050565b6000600154905090565b6040518060400160405280600073ffffffffffffffffffffffffffffffffffffffff168152602001606081525090565b8280546106c390610c5f565b90600052602060002090601f0160209004810192826106e5576000855561072c565b82601f106106fe57805160ff191683800117855561072c565b8280016001018555821561072c579182015b8281111561072b578251825591602001919060010190610710565b5b509050610739919061073d565b5090565b5b8082111561075657600081600090555060010161073e565b5090565b600061076d61076884610b4b565b610b1a565b90508281526020810184848401111561078557600080fd5b610790848285610c1d565b509392505050565b600082601f8301126107a957600080fd5b81356107b984826020860161075a565b91505092915050565b6000813590506107d181610d78565b92915050565b6000602082840312156107e957600080fd5b600082013567ffffffffffffffff81111561080357600080fd5b61080f84828501610798565b91505092915050565b60006020828403121561082a57600080fd5b6000610838848285016107c2565b91505092915050565b600061084d83836109c0565b905092915050565b61085e81610be1565b82525050565b61086d81610be1565b82525050565b600061087e82610b8b565b6108888185610bae565b93508360208202850161089a85610b7b565b8060005b858110156108d657848403895281516108b78582610841565b94506108c283610ba1565b925060208a0199505060018101905061089e565b50829750879550505050505092915050565b60006108f382610b96565b6108fd8185610bbf565b935061090d818560208601610c2c565b61091681610d67565b840191505092915050565b600061092c82610b96565b6109368185610bd0565b9350610946818560208601610c2c565b61094f81610d67565b840191505092915050565b6000610967602a83610bd0565b91507f506f73742074657874206d757374206265206c657373207468616e203134302060008301527f63686172616374657273000000000000000000000000000000000000000000006020830152604082019050919050565b60006040830160008301516109d86000860182610855565b50602083015184820360208601526109f082826108e8565b9150508091505092915050565b6000604083016000830151610a156000860182610855565b5060208301518482036020860152610a2d82826108e8565b9150508091505092915050565b610a4381610c13565b82525050565b6000604082019050610a5e6000830185610864565b8181036020830152610a708184610921565b90509392505050565b60006020820190508181036000830152610a938184610873565b905092915050565b60006020820190508181036000830152610ab58184610921565b905092915050565b60006020820190508181036000830152610ad68161095a565b9050919050565b60006020820190508181036000830152610af781846109fd565b905092915050565b6000602082019050610b146000830184610a3a565b92915050565b6000604051905081810181811067ffffffffffffffff82111715610b4157610b40610d38565b5b8060405250919050565b600067ffffffffffffffff821115610b6657610b65610d38565b5b601f19601f8301169050602081019050919050565b6000819050602082019050919050565b600081519050919050565b600081519050919050565b6000602082019050919050565b600082825260208201905092915050565b600082825260208201905092915050565b600082825260208201905092915050565b6000610bec82610bf3565b9050919050565b600073ffffffffffffffffffffffffffffffffffffffff82169050919050565b6000819050919050565b82818337600083830152505050565b60005b83811015610c4a578082015181840152602081019050610c2f565b83811115610c59576000848401525b50505050565b60006002820490506001821680610c7757607f821691505b60208210811415610c8b57610c8a610d09565b5b50919050565b6000610c9c82610c13565b91507fffffffffffffffffffffffffffffffffffffffffffffffffffffffffffffffff821415610ccf57610cce610cda565b5b600182019050919050565b7f4e487b7100000000000000000000000000000000000000000000000000000000600052601160045260246000fd5b7f4e487b7100000000000000000000000000000000000000000000000000000000600052602260045260246000fd5b7f4e487b7100000000000000000000000000000000000000000000000000000000600052604160045260246000fd5b6000601f19601f8301169050919050565b610d8181610c13565b8114610d8c57600080fd5b5056fea2646970667358221220aca4a5c506a52804afff4eb73345f10a1aedf5d5f25cb29ef86d02e6aa0980d164736f6c63430008000033",
  "linkReferences": {},
  "deployedLinkReferences": {}
}